:100000000C9434000C943E000C943E000C943E0082
:100010000C943E000C943E000C943E000C943E0068
:100020000C943E000C943E000C943E000C943E0058
:100030000C943E000C943E000C943E000C943E0048
:100040000C943E000C943E000C943E000C943E0038
:100050000C943E000C943E000C943E000C943E0028
:100060000C943E000C943E0011241FBECFEFD8E04C
:10007000DEBFCDBF0E9440000C949F000C94000096
:10008000219A8AB18B7E8AB98BB18C608BB98091B1
:1000900080008068809380008091800082608093DF
:1000A000800080918100886180938100809181002F
:1000B00085608093810089E09DE390938700809321
:1000C00086008AE196E0909389008093880041E061
:1000D00031E059B129B12071652F647052FD13C010
:1000E000332389F03FEF50E772E0315050407040C9
:1000F000E1F700C000004A9906C08F3E36E393073F
:1001000010F4865E994F211113C0442389F04C9955
:100110000FC04FEF50E772E0415050407040E1F7A0
:1001200000C000008A3136E0930710F08A519640F3
:100130009093890080938800422F362FCACFF8947D
:02014000FFCFEF
:00000001FF
