:100000000C9434000C943E000C943E000C943E0082
:100010000C943E000C943E000C943E000C943E0068
:100020000C943E000C943E000C943E000C943E0058
:100030000C943E000C943E000C943E000C943E0048
:100040000C943E000C943E000C943E000C943E0038
:100050000C943E000C943E000C943E000C943E0028
:100060000C943E000C943E0011241FBECFEFD8E04C
:10007000DEBFCDBF0E945D010C94F3010C94000023
:1000800054985C9A0E94190180E20C94490129B1AC
:1000900030E0A90102C0559547958A95E2F7CA015B
:1000A0008095909581700895CF93DF93C82FD62FB8
:1000B0000E9429018C2F880F0E941F0180E00E945E
:1000C0001F010E9429018C2F880F81600E941F014F
:1000D00080E00E943901C82F0E943101CD2381E0C8
:1000E00009F080E0DF91CF9108958CE284B981E539
:1000F0008CBD08958EBD0DB407FEFDCF08951F93EE
:10010000CF93DF93C62FD42F122F806E0E947A00D8
:10011000812F0E947A008D2F0E947A008C2FDF9110
:10012000CF911F910C947A00FF920F931F93CF935E
:10013000DF93D82FC62F142FF22E80E00E947A0072
:1001400080E00E947A0080E00E947A0080E00E94B5
:100150007A00D13049F1A8F0D23081F1D430F1F1F8
:100160008FEF0E947A008FEF0E947A008FEF0E943B
:100170007A008FEFDF91CF911F910F91FF900C9438
:100180007A00202F4F2D612F8C2F0E947F0020E0BE
:1001900040E060E08C2F0E947F0020E040E060E0C3
:1001A0008C2F0E947F00DCCF20E040E060E08C2FAD
:1001B0000E947F00202F4F2D612FECCF20E040E0E8
:1001C00060E08C2F0E947F0020E040E060E08C2FF8
:1001D0000E947F00202F4F2D612FE2CF20E040E0D2
:1001E00060E080E00E947F0020E040E060E080E08E
:1001F0000E947F0020E040E060E080E0D2CF80E617
:1002000080937C0087E880937A00089590917C0029
:10021000907F8F70982B90937C0080917A008064FF
:1002200080937A0080917A0086FDFCCF80917900DE
:1002300008951092B90088E48093B80008958093DF
:10024000BB0084E88093BC008091BC0087FFFCCF9A
:10025000089584EA8093BC008091BC0087FFFCCFA6
:10026000089584E98093BC008091BC0087FFFCCF97
:100270000895882351F084EC8093BC008091BC00E9
:1002800087FFFCCF8091BB00089584E8F5CF81E023
:100290000895CF93C82F0E9429018C2F880F0E94A8
:1002A0001F0186E00E941F018FEF0E941F018FEF48
:1002B0000E941F01CF910C943101CF93DF93CDB7F2
:1002C000DEB729970FB6F894DEBF0FBECDBF0E94F0
:1002D00075000E94FF000E944000CE0101966C0153
:1002E00089E0F60111928A95E9F7F12C10E053E0CC
:1002F000A52EB12C80E00E940601082F84E00E9408
:1003000047008823E1F08F2D90E0212F30E0F901A4
:10031000EE0FFF1FE20FF31FEC0DFD1DE80FF91F9D
:1003200000830196B5010E94CB01F82EFFEF23EC6C
:1003300089E0F15020408040E1F700C0000060E11A
:1003400080E20E945400882381F0812F90E0019682
:10035000B5010E94CB01182F9FEFE3ECF9E091501B
:10036000E040F040E1F700C000000B812A814981A4
:1003700062E080E00E9494000E812D814C8162E059
:1003800081E00E949400098528854F8162E082E027
:100390000E949400AFCF97FB072E16F4009407D06D
:1003A00077FD09D00E94DF0107FC05D03EF490954F
:1003B00081959F4F0895709561957F4F0895AA1B71
:1003C000BB1B51E107C0AA1FBB1FA617B70710F040
:1003D000A61BB70B881F991F5A95A9F78095909572
:0A03E000BC01CD010895F894FFCF91
:00000001FF
