:100000000C9434000C943E000C943E000C943E0082
:100010000C943E000C943E000C943E000C943E0068
:100020000C943E000C943E000C943E000C943E0058
:100030000C943E000C943E000C943E000C943E0048
:100040000C943E000C943E000C943E000C943E0038
:100050000C943E000C943E000C943E000C943E0028
:100060000C943E000C943E0011241FBECFEFD8E04C
:10007000DEBFCDBF0E9440000C9460000C940000D5
:10008000219AE0E8F0E0808180688083808182604E
:100090008083E1E8F0E080818861808380818560F1
:1000A000808389E09DE390938700809386008AE1B6
:1000B00096E0909389008093880080E090E0089516
:0400C000F894FFCFE2
:00000001FF
